:020000040000FA
:040000002BEF01F0F1
:060008004D825CEF0AF0DE
:100018004D80D8CF38F0E8CF39F0E0CF3AF0E1CFD3
:100028003BF0E2CF3CF0D9CF3DF0DACF3EF09DA4D3
:1000380020EF00F022EF00F038EF00F09EA427EF49
:1000480000F029EF00F038EF00F0000ECE6E000E41
:10005800CF6EBECF60F0BFCF61F0600E326E000E83
:10006800336E02EC08F09E94A0A03DEF00F03FEF45
:1000780000F055EF00F0A1A044EF00F046EF00F0CB
:1000880055EF00F0000EB26E000EB36E5ECF77F043
:100098005FCF78F0770E326E000E336E02EC08F008
:1000A800A1907AA05AEF00F05CEF00F073EF00F037
:1000B8007BA061EF00F063EF00F073EF00F0000E3B
:1000C8000F014F6F000E506F55CF8EF056CF8FF047
:1000D8008E0E326E000E336E02EC08F07B90F2AAA0
:1000E80078EF00F07AEF00F0BEEF00F0F2A47FEFB7
:1000F80000F081EF00F0BEEF00F0630ED76EBF0E88
:10010800D66E89760B50D8A48CEF00F08EEF00F0F5
:10011800A4EF00F02250D8B494EF00F096EF00F06E
:10012800A4EF00F0212A20502118D8A49EEF00F057
:10013800A0EF00F0A4EF00F0000E216E010E236E78
:100148000A2A320E0A18D8A4ACEF00F0AEEF00F07D
:10015800BDEF00F0000E0A6E030E0001D86F730E9B
:10016800326E0F0E336EA50E346E000E356EC7EC70
:100178000DF0F2949DA6C3EF00F0C5EF00F0F3EF89
:1001880000F09EA6CAEF00F0CCEF00F0F3EF00F00D
:1001980001013351325DD8B0D4EF00F0D6EF00F052
:1001A800F0EF00F0000E3225D96EDA6A010EDA227D
:1001B800DF503F6E000E3225D96EDA6A010EDA2260
:1001C800C9CFDFFF3FC0C9FF322B32C1A5F033C111
:1001D800A6F08B70F2EF00F0000E326F9E96A3A887
:1001E800F8EF00F0FAEF00F01BEF01F0A4A8FFEF22
:1001F80000F001EF01F01BEF01F00001D851D75DCD
:10020800D8B009EF01F00BEF01F016EF01F0A50EE1
:10021800D725D96EDA6A000EDA22DF50736ED72B33
:100228001BEF01F0000ED76F000ED96FA3983EC0E8
:10023800DAFF3DC0D9FF3CC0E2FF3BC0E1FF3AC056
:10024800E0FF39C0E8FF38C0D8FF4D90100084EFB8
:020258000DF0A7
:03100000007F006E
:1010040020EE02F03250D9263350DA22DF50D8B421
:101014000EEF08F010EF08F038EF08F032C0D9FFF7
:1010240033C0DAFF5A0EDE5C0A0EDE58D8A01DEF7C
:1010340008F01FEF08F064EF09F032C0D9FF33C0A5
:10104400DAFFBF0EDE5C0A0EDE58D8B02CEF08F0D3
:101054002EEF08F064EF09F020EE02F03250D926AA
:101064003350DA22000EDF6E64EF09F032C0D9FF8C
:1010740033C0DAFF5A0EDE5C0A0EDE58D8A045EF04
:1010840008F047EF08F07FEF08F032C0D9FF33C013
:10109400DAFFBF0EDE5C0A0EDE58D8B054EF08F05B
:1010A40056EF08F07FEF08F020EE03F03250D92617
:1010B4003350DA2210EE03F03250E1263350E222AC
:1010C400E750346ED8903430DF6E20EE15F0325095
:1010D400D9263350DA22DF2A20EE03F03250D92603
:1010E4003350DA2210EE03F03250E1263350E2227C
:1010F400E7508009DF6EC7EF08F032C0D9FF33C074
:10110400DAFFAC0EDE5C080EDE58D8A08CEF08F0D7
:101114008EEF08F0B7EF08F032C0D9FF33C0DAFF22
:10112400110EDE5C090EDE58D8B09BEF08F09DEF7F
:1011340008F0B7EF08F020EE03F03250D926335010
:10114400DA2210EE03F03250E1263350E222E75067
:10115400346ED8903430DF6E20EE15F03250D9263C
:101164003350DA22DF2AC7EF08F020EE02F03250C3
:10117400D9263350DA22010EDF6E20EE15F03250FC
:10118400D9263350DA22000EDF6E20EE15F03250ED
:10119400D9263350DA22080EDE18D8A4D4EF08F08A
:1011A400D6EF08F064EF09F020EE15F03250D9269E
:1011B4003350DA22000EDF6E20EE13F03250D926BF
:1011C4003350DA22DF50D8A4EAEF08F0ECEF08F04D
:1011D400FCEF08F020EE03F03250D9263350DA2227
:1011E40010EE14F03250E1263350E222DFCFE7FF55
:1011F4005DEF09F020EE03F03250D9263350DA22A5
:1012040010EE13F03250E1263350E222E750346EF0
:10121400356A34BE350632C036F033C037F0345048
:10122400362635503722030E3624E16E000E372061
:10123400E26EDFCFE7FF20EE13F03250D9263350B1
:10124400DA22DF50346E356A34BE350620EE14F0EF
:101254003250D9263350DA22DF50366E376A345092
:10126400361807E135503718D8A43BEF09F03DEFA5
:1012740009F05DEF09F020EE02F03250D926335028
:10128400DA22010EDF6E20EE13F03250D9263350ED
:10129400DA22FF0EDF6E20EE03F03250D9263350EF
:1012A400DA22000EDF6E20EE16F03250D9263350CB
:1012B400DA22010EDF6E20EE13F03250D9263350BD
:1012C400DA22DF2A120012EC0DF0000E406E010E3D
:1012D400416E85EC0CF0EBEC0BF0060E2F6E060E57
:1012E4002F18D8A478EF09F07AEF09F071EF09F01C
:1012F400020E0B18D8A481EF09F083EF09F091EFE7
:1013040009F0030E016E0DC002F00CC003F01FC003
:1013140004F0040E076E000E0B6E71EF09F00B5013
:10132400D8A497EF09F099EF09F071EF09F081A0C3
:101334009EEF09F0A0EF09F0B9EF09F02250D8A40C
:10134400A6EF09F0A8EF09F0B9EF09F0000E0F01BC
:10135400536F140E526F5151870B5009516FFC0E8D
:10136400511751857D80010E226ECCEF09F081B0BA
:10137400BEEF09F0C0EF09F0CCEF09F02350D8B468
:10138400C6EF09F0C8EF09F0CCEF09F0000E236EA8
:10139400000E226E00017651D8B4D3EF09F0D5EFD8
:1013A40009F0FAEF09F02A0E406E000E416E0B0EA2
:1013B400426E000E436E600E446E000E456E3BECB2
:1013C4000BF0000E0001766F520EA56F650EA66F2E
:1013D400630EA76F310EA86F040ED86F730E406EA4
:1013E4000F0E416EA50E426E000E436EABEC0DF077
:1013F40000018D51D8B401EF0AF003EF0AF028EF91
:101404000AF02A0E406E000E416E0B0E426E000E64
:10141400436E770E446E000E456E3BEC0BF0000EEF
:1014240000018D6F520EA56F650EA66F630EA76F38
:10143400320EA86F040ED86F730E406E0F0E416EFD
:10144400A50E426E000E436EABEC0DF00001A451EC
:10145400D8B42FEF0AF031EF0AF058EF0AF02A0E51
:10146400406E000E416E0B0E426E000E436E8E0EE9
:10147400446E000E456E3BEC0BF0000E0001A46FB1
:10148400520EA56F650EA66F630EA76F330EA86F7D
:10149400040ED86F730E406E0F0E416EA50E426E91
:1014A400000E436EABEC0DF071EF09F071EF09F033
:1014B4002BEF01F0D9CF30F0DACF31F0F2A865EF9D
:1014C4000AF067EF0AF06FEF0AF0F2A26CEF0AF08D
:1014D4006EEF0AF06FEF0AF0F292F0A874EF0AF0E0
:1014E40076EF0AF081EF0AF0F0A27BEF0AF07DEFCD
:1014F4000AF081EF0AF0010E0001A81BF0927DA012
:1015040086EF0AF088EF0AF035EF0BF07EA08DEF3E
:101514000AF08FEF0AF035EF0BF00F0E096095EF2C
:101524000AF097EF0AF0B0EF0AF04C50D8B49DEFF0
:101534000AF09FEF0AF0A7EF0AF08984890E0F01E1
:10154400526F000E4C6E34EF0BF08994460E0F016F
:10155400526F010E4C6E092A34EF0BF00F0E09186E
:10156400D8A4B7EF0AF0B9EF0AF0CBEF0AF04C5069
:10157400D8B4BFEF0AF0C1EF0AF0A7EF0AF08984EC
:10158400B10E0F01526F000E4C6E34EF0BF034EFBE
:101594000BF0100E0918D8A4D2EF0AF0D4EF0AF019
:1015A40018EF0BF04C50D8B4DAEF0AF0DCEF0AF085
:1015B400F9EF0AF08984010E0824D96EDA6A000E64
:1015C400DA22DF504B140009D8B4EBEF0AF0EDEF48
:1015D4000AF0F2EF0AF0B10E0F01526FF5EF0AF0C4
:1015E400890E0F01526F000E4C6E34EF0BF089948C
:1015F400460E0F01526F010E4C6E4B504B244B6E36
:101604004B50D8A408EF0BF00AEF0BF034EF0BF0BB
:10161400010E4B6E082A07500818D8A414EF0BF0DB
:1016240016EF0BF0C9EF0AF0ADEF0AF04C50D8B446
:101634001EEF0BF020EF0BF028EF0BF08984000E67
:101644004C6E320E0F01526F34EF0BF0000E096E28
:10165400010E4C6E010E4B6E000E086E0F0151957B
:101664007D9089947E9031C0DAFF30C0D9FF4D92CD
:10167400110042C0D9FF43C0DAFFDF50D8A445EFC0
:101684000BF047EF0BF0EAEF0BF020EE05F04450BF
:10169400D9264550DA2210EE02F04250E12643509A
:1016A400E222DE50E618D8B45AEF0BF05CEF0BF0F0
:1016B400EAEF0BF020EE04F04050D9264150DA2234
:1016C400DF50D8A468EF0BF06AEF0BF07FEF0BF05C
:1016D40020EE06F04450D9264550DA2210EE01F0EF
:1016E4004250E1264350E222DE50E618D8B47DEFA2
:1016F4000BF07FEF0BF0EAEF0BF020EE07F0445015
:10170400D9264550DA2210EE03F04250E126435028
:10171400E222DE50E65CD8B092EF0BF094EF0BF0CF
:10172400DAEF0BF020EE03F04250D9264350DA22D0
:10173400000EDF6E20EE01F04050D9264150DA222F
:10174400DF50466E476A20EE1DF04250D9264350C2
:10175400DA224650DE5CDE50800A4A6E4750800A28
:101764004A58D8B0B8EF0BF0BAEF0BF0C6EF0BF055
:1017740020EE1DF04250D9264350DA22000EDE6ED0
:10178400000EDD6EEAEF0BF020EE1DF04250D9267C
:101794004350DA2210EE01F04050E1264150E2229B
:1017A400E750466E4650DE5E000EDD5AEAEF0BF05F
:1017B40020EE07F04450D9264550DA22DF50466E19
:1017C40020EE03F04250D9264350DA224650DF5E21
:1017D4001200000E2F6E000E2E6E030E2D6E060EDE
:1017E4002B6E050E2A6E010E2C6E020E0B6E020E6F
:1017F4000C6E650E0D6E640E0E6E140E0F6E140ECE
:10180400106E010E116E050E126E000E406E150E56
:101814004024D96EDA6A000EDA22000EDF6E402A06
:10182400090E406418EF0CF01AEF0CF009EF0CF0FD
:10183400000E136E000E146E0F0E1F6E320E206E0D
:10184400000E216E000E226E000E236E000E296E15
:10185400000E286E000E246E000E256E000E266EFD
:10186400000E276E000E416E4150170D620EF324D8
:10187400D96E000EF420DA6E010EDF6E4150170DA2
:10188400630EF324D96E000EF420DA6E000EDF6EC0
:101894004150170D730EF324D96E000EF420DA6E46
:1018A400000EDF6E4150170D740EF324D96E000E36
:1018B400F420DA6E000EDF6E4150170D750EF3241E
:1018C400D96E000EF420DA6E000EDF6E4150170D53
:1018D400760EF324D96E000EF420DA6E000EDF6E5D
:1018E400412A020E416479EF0CF07BEF0CF036EFE5
:1018F4000CF0000E0001D96F010ED86F000ED76FE7
:10190400000EA56F120040C0D9FF41C0DAFF040EDB
:10191400DF6E20EE01F04050D9264150DA22600EED
:10192400DF6E20EE02F04050D9264150DA22060E36
:10193400DF6E20EE03F04050D9264150DA22800EAB
:10194400DF6E20EE04F04050D9264150DA22220EF8
:10195400DF6E20EE05F04050D9264150DA22830E86
:10196400DF6E20EE06F04050D9264150DA22240ED4
:10197400DF6E20EE07F04050D9264150DA22B00E37
:10198400DF6E20EE08F04050D9264150DA22260EB0
:10199400DF6E20EE09F04050D9264150DA22B00E15
:1019A400DF6E20EE0AF04050D9264150DA224C0E68
:1019B400DF6E20EE0BF04050D9264150DA22000EA3
:1019C400DF6E20EE0CF04050D9264150DA22280E6A
:1019D400DF6E20EE0DF04050D9264150DA22030E7E
:1019E400DF6E20EE0EF04050D9264150DA22020E6E
:1019F400DF6E20EE0FF04050D9264150DA22080E57
:101A0400DF6E20EE33F04050D9264150DA220F0E1B
:101A1400DF6E40C0D9FF41C0DAFFDF50C96E12004B
:101A2400010E0F01386F010E926E000E896E000ECA
:101A3400396F000E8A6E9368000E616E000E3A6F65
:101A44009490000E3B6FC00E956E000E966EF29849
:101A5400F08EF088D59CD59AD596D550F80B02090E
:101A6400D56E630ED76EBF0ED66EF194F28A5151C5
:101A7400870B5009516FFC0E5117CB0E526F7F80AC
:101A840051957D809484FC0E4917BD50F00B0509D7
:101A9400BD6ECD809F949D8494824951E70B0809C3
:101AA400496F6650F00B0509666EB180A290A08064
:101AB400968049513F0B8009496F5D51F00B050930
:101AC4005D6F4E817C907A8094969488949AC79E98
:101AD400C78CC698C650F00B0209C66EC68A9F967C
:101AE4009D86708672947298A00E756E010E766E45
:101AF4007198728AA498718EA598A388D08EF28E5C
:101B0400F28C1200C60EF66E1B0EF76E000EF86E07
:101B14000900F5CF4BF00900F5CF4CF001EE00F0D1
:101B2400340EEE6AE806FDE100EE60F07A0EEE6A2D
:101B3400E806FDE100EE01F02F0EEE6AE806FDE195
:101B44004D904D92000EF86E100EF76E000165EF89
:101B540009F020EE34F04250D9264350DA22010E27
:101B6400DF6E20EE32F04250D9264350DA22010EC5
:101B7400DF6E42C0D9FF43C0DAFF40C0E1FF41C07D
:101B8400E2FFDFCFE7FFA388120020EE34F03450E9
:101B9400D9263550DA22010EDF6E20EE32F03450B1
:101BA400D9263550DA22010EDF6E34C0D9FF35C094
:101BB400DAFF32C0E1FF33C0E2FFDFCFE7FFA388E3
:041BC4001200010109
:020000040020DA
:08000000FFFFFFFFFFFFFFFF00
:020000040030CA
:0E000000FF331F3CFFB905FF0FC00FE00F409C
:00000001FF
