:020000040000FA
:04000000F6EF00F027
:060008004C8256EF0AF0E5
:100018004C80D8CF38F0E8CF39F0E0CF3AF0E1CFD4
:100028003BF0E2CF3CF0D9CF3DF0DACF3EF09DA4D3
:1000380020EF00F022EF00F038EF00F09EA427EF49
:1000480000F029EF00F038EF00F0000ECE6E000E41
:10005800CF6EBECF60F0BFCF61F0600E326E000E83
:10006800336E02EC08F09E94A0A03DEF00F03FEF45
:1000780000F055EF00F0A1A044EF00F046EF00F0CB
:1000880055EF00F0000EB26E000EB36E5ECF77F043
:100098005FCF78F0770E326E000E336E02EC08F008
:1000A800A1907AA05AEF00F05CEF00F073EF00F037
:1000B8007BA061EF00F063EF00F073EF00F0000E3B
:1000C8000F014F6F000E506F55CF8EF056CF8FF047
:1000D8008E0E326E000E336E02EC08F07B90F2AAA0
:1000E80078EF00F07AEF00F0BEEF00F0F2A47FEFB7
:1000F80000F081EF00F0BEEF00F0630ED76EBF0E88
:10010800D66E89760B50D8A48CEF00F08EEF00F0F5
:10011800A4EF00F02250D8B494EF00F096EF00F06E
:10012800A4EF00F0212A20502118D8A49EEF00F057
:10013800A0EF00F0A4EF00F0000E216E010E236E78
:100148000A2A320E0A18D8A4ACEF00F0AEEF00F07D
:10015800BDEF00F0000E0A6E030E0001D86F730E9B
:10016800326E0F0E336EA50E346E000E356E2EEC09
:100178000DF0F294A3A8C3EF00F0C5EF00F0E6EF8E
:1001880000F0A4A8CAEF00F0CCEF00F0E6EF00F012
:100198000001D851D75DD8B0D4EF00F0D6EF00F009
:1001A800E1EF00F0A50ED725D96EDA6A000EDA2243
:1001B800DF50736ED72BE6EF00F0000ED76F000EFE
:1001C800D96FA3983EC0DAFF3DC0D9FF3CC0E2FF1B
:1001D8003BC0E1FF3AC0E0FF39C0E8FF38C0D8FFB4
:0801E8004C901000F1EF0CF047
:03100000007F006E
:1010040020EE02F03250D9263350DA22DF50D8B421
:101014000EEF08F010EF08F038EF08F032C0D9FFF7
:1010240033C0DAFF5A0EDE5C0A0EDE58D8A01DEF7C
:1010340008F01FEF08F064EF09F032C0D9FF33C0A5
:10104400DAFFBF0EDE5C0A0EDE58D8B02CEF08F0D3
:101054002EEF08F064EF09F020EE02F03250D926AA
:101064003350DA22000EDF6E64EF09F032C0D9FF8C
:1010740033C0DAFF5A0EDE5C0A0EDE58D8A045EF04
:1010840008F047EF08F07FEF08F032C0D9FF33C013
:10109400DAFFBF0EDE5C0A0EDE58D8B054EF08F05B
:1010A40056EF08F07FEF08F020EE03F03250D92617
:1010B4003350DA2210EE03F03250E1263350E222AC
:1010C400E750346ED8903430DF6E20EE15F0325095
:1010D400D9263350DA22DF2A20EE03F03250D92603
:1010E4003350DA2210EE03F03250E1263350E2227C
:1010F400E7508009DF6EC7EF08F032C0D9FF33C074
:10110400DAFFAC0EDE5C080EDE58D8A08CEF08F0D7
:101114008EEF08F0B7EF08F032C0D9FF33C0DAFF22
:10112400110EDE5C090EDE58D8B09BEF08F09DEF7F
:1011340008F0B7EF08F020EE03F03250D926335010
:10114400DA2210EE03F03250E1263350E222E75067
:10115400346ED8903430DF6E20EE15F03250D9263C
:101164003350DA22DF2AC7EF08F020EE02F03250C3
:10117400D9263350DA22010EDF6E20EE15F03250FC
:10118400D9263350DA22000EDF6E20EE15F03250ED
:10119400D9263350DA22080EDE18D8A4D4EF08F08A
:1011A400D6EF08F064EF09F020EE15F03250D9269E
:1011B4003350DA22000EDF6E20EE13F03250D926BF
:1011C4003350DA22DF50D8A4EAEF08F0ECEF08F04D
:1011D400FCEF08F020EE03F03250D9263350DA2227
:1011E40010EE14F03250E1263350E222DFCFE7FF55
:1011F4005DEF09F020EE03F03250D9263350DA22A5
:1012040010EE13F03250E1263350E222E750346EF0
:10121400356A34BE350632C036F033C037F0345048
:10122400362635503722030E3624E16E000E372061
:10123400E26EDFCFE7FF20EE13F03250D9263350B1
:10124400DA22DF50346E356A34BE350620EE14F0EF
:101254003250D9263350DA22DF50366E376A345092
:10126400361807E135503718D8A43BEF09F03DEFA5
:1012740009F05DEF09F020EE02F03250D926335028
:10128400DA22010EDF6E20EE13F03250D9263350ED
:10129400DA22FF0EDF6E20EE03F03250D9263350EF
:1012A400DA22000EDF6E20EE16F03250D9263350CB
:1012B400DA22010EDF6E20EE13F03250D9263350BD
:1012C400DA22DF2A12007FEC0CF0E5EC0BF0060EBC
:1012D4002F6E060E2F18D8A472EF09F074EF09F0E0
:1012E4006BEF09F0020E0B18D8A47BEF09F07DEF29
:1012F40009F08BEF09F0030E016E0DC002F00CC073
:1013040003F01FC004F0040E076E000E0B6E6BEFAB
:1013140009F00B50D8A491EF09F093EF09F06BEFAB
:1013240009F081A098EF09F09AEF09F0B3EF09F002
:101334002250D8A4A0EF09F0A2EF09F0B3EF09F00E
:10134400000E0F01536F140E526F5151870B500949
:10135400516FFC0E511751857D80010E226EC6EF30
:1013640009F081B0B8EF09F0BAEF09F0C6EF09F05F
:101374002350D8B4C0EF09F0C2EF09F0C6EF09F06A
:10138400000E236E000E226E00017651D8B4CDEF0C
:1013940009F0CFEF09F0F4EF09F02A0E3F6E000ECA
:1013A400406E0B0E416E000E426E600E436E000ED8
:1013B400446E35EC0BF0000E0001766F520EA56FF3
:1013C400650EA66F630EA76F310EA86F040ED86F5B
:1013D400730E3F6E0F0E406EA50E416E000E426EF0
:1013E40012EC0DF000018D51D8B4FBEF09F0FDEFC4
:1013F40009F022EF0AF02A0E3F6E000E406E0B0E2B
:10140400416E000E426E770E436E000E446E35EC54
:101414000BF0000E00018D6F520EA56F650EA66FC6
:10142400630EA76F320EA86F040ED86F730E3F6E53
:101434000F0E406EA50E416E000E426E12EC0DF0C2
:101444000001A451D8B429EF0AF02BEF0AF052EFAF
:101454000AF02A0E3F6E000E406E0B0E416E000E17
:10146400426E8E0E436E000E446E35EC0BF0000E91
:101474000001A46F520EA56F650EA66F630EA76FD1
:10148400330EA86F040ED86F730E3F6E0F0E406EAE
:10149400A50E416E000E426E12EC0DF06BEF09F0DA
:1014A4006BEF09F0F6EF00F0D9CF30F0DACF31F07E
:1014B400F2A85FEF0AF061EF0AF069EF0AF0F2A216
:1014C40066EF0AF068EF0AF069EF0AF0F292F0A80A
:1014D4006EEF0AF070EF0AF07BEF0AF0F0A275EFFE
:1014E4000AF077EF0AF07BEF0AF0010E0001A81B67
:1014F400F0927DA080EF0AF082EF0AF02FEF0BF05C
:101504007EA087EF0AF089EF0AF02FEF0BF00F0EA1
:1015140009608FEF0AF091EF0AF0AAEF0AF04B503E
:10152400D8B497EF0AF099EF0AF0A1EF0AF0898492
:10153400890E0F01526F000E4B6E2EEF0BF0899443
:10154400460E0F01526F010E4B6E092A2EEF0BF05F
:101554000F0E0918D8A4B1EF0AF0B3EF0AF0C5EFE3
:101564000AF04B50D8B4B9EF0AF0BBEF0AF0A1EF80
:101574000AF08984B10E0F01526F000E4B6E2EEFEC
:101584000BF02EEF0BF0100E0918D8A4CCEF0AF0D4
:10159400CEEF0AF012EF0BF04B50D8B4D4EF0AF0B0
:1015A400D6EF0AF0F3EF0AF08984010E0824D96E0D
:1015B400DA6A000EDA22DF504A140009D8B4E5EFE3
:1015C4000AF0E7EF0AF0ECEF0AF0B10E0F01526FE8
:1015D400EFEF0AF0890E0F01526F000E4B6E2EEFE3
:1015E4000BF08994460E0F01526F010E4B6E4A5058
:1015F4004A244A6E4A50D8A402EF0BF004EF0BF0D1
:101604002EEF0BF0010E4A6E082A07500818D8A4D2
:101614000EEF0BF010EF0BF0C3EF0AF0A7EF0AF098
:101624004B50D8B418EF0BF01AEF0BF022EF0BF07D
:101634008984000E4B6E320E0F01526F2EEF0BF0A9
:10164400000E096E010E4B6E010E4A6E000E086EFE
:101654000F0151957D9089947E9031C0DAFF30C09E
:10166400D9FF4C92110041C0D9FF42C0DAFFDF50CC
:10167400D8A43FEF0BF041EF0BF0E4EF0BF020EEBA
:1016840005F04350D9264450DA2210EE02F04150BE
:10169400E1264250E222DE50E618D8B454EF0BF0B3
:1016A40056EF0BF0E4EF0BF020EE04F03F50D92698
:1016B4004050DA22DF50D8A462EF0BF064EF0BF055
:1016C40079EF0BF020EE06F04350D9264450DA228D
:1016D40010EE01F04150E1264250E222DE50E618BD
:1016E400D8B477EF0BF079EF0BF0E4EF0BF020EECA
:1016F40007F04350D9264450DA2210EE03F041504B
:10170400E1264250E222DE50E65CD8B08CEF0BF0CA
:101714008EEF0BF0D4EF0BF020EE03F04150D926FE
:101724004250DA22000EDF6E20EE01F03F50D9263F
:101734004050DA22DF50456E466A20EE1DF04150DB
:10174400D9264250DA224550DE5CDE50800A496ECA
:101754004650800A4958D8B0B2EF0BF0B4EF0BF002
:10176400C0EF0BF020EE1DF04150D9264250DA2292
:10177400000EDE6E000EDD6EE4EF0BF020EE1DF0C9
:101784004150D9264250DA2210EE01F03F50E126B2
:101794004050E222E750456E4550DE5E000EDD5AB1
:1017A400E4EF0BF020EE07F04350D9264450DA2240
:1017B400DF50456E20EE03F04150D9264250DA2224
:1017C4004550DF5E1200000E2F6E000E2E6E030ECB
:1017D4002D6E060E2B6E050E2A6E010E2C6E020E59
:1017E4000B6E020E0C6E650E0D6E640E0E6E140EF4
:1017F4000F6E140E106E010E116E050E126E000E99
:101804003F6E150E3F24D96EDA6A000EDA22000EFE
:10181400DF6E3F2A090E3F6412EF0CF014EF0CF058
:1018240003EF0CF0000E136E000E146E0F0E1F6EFD
:10183400320E206E000E216E000E226E000E236EFC
:10184400000E296E000E286E000E246E000E256E0A
:10185400000E266E000E276E000E406E4050170DCF
:10186400620EF324D96E000EF420DA6E010EDF6EE0
:101874004050170D630EF324D96E000EF420DA6E77
:10188400000EDF6E4050170D730EF324D96E000E58
:10189400F420DA6E000EDF6E4050170D740EF32440
:1018A400D96E000EF420DA6E000EDF6E4050170D74
:1018B400750EF324D96E000EF420DA6E000EDF6E7E
:1018C4004050170D760EF324D96E000EF420DA6E14
:1018D400000EDF6E402A020E406473EF0CF075EFC9
:1018E4000CF030EF0CF0000E0001D96F010ED86F30
:1018F400000ED76F000EA56F1200010E0F01386F96
:10190400010E926E000E896E000E396F000E8A6E03
:101914009368000E616E000E3A6F9490000E3B6F58
:10192400C00E956E000E966EF298F08EF088D59CDF
:10193400D59AD596D550F80B0209D56E630ED76E9D
:10194400BF0ED66EF194F28A5151870B5009516F34
:10195400FC0E5117CB0E526F7F8051957D8094847D
:10196400FC0E4917BD50F00B0509BD6ECD809F9448
:101974009D8494824951E70B0809496F6650F00B26
:101984000509666EB180A290A080968049513F0BF4
:101994008009496F5D51F00B05095D6F4E817C90A4
:1019A4007A8094969488949AC79EC78CC698C65099
:1019B400F00B0209C66EC68A9F969D867086729445
:1019C4007298A00E756E010E766E7198728AA49844
:1019D400718EA598A388D08EF28EF28C1200940E8C
:1019E400F66E1A0EF76E000EF86E0900F5CF4AF087
:1019F4000900F5CF4BF000EE60F07A0EEE6AE806CF
:101A0400FDE100EE01F02F0EEE6AE806FDE14C90D8
:101A14004C92000EF86E100EF76E000165EF09F09F
:101A240020EE34F04150D9264250DA22010EDF6E06
:101A340020EE32F04150D9264250DA22010EDF6EF8
:101A440041C0D9FF42C0DAFF3FC0E1FF40C0E2FF1E
:101A5400DFCFE7FFA388120020EE34F03450D926FC
:101A64003550DA22010EDF6E20EE32F03450D926E2
:101A74003550DA22010EDF6E34C0D9FF35C0DAFFEB
:101A840032C0E1FF33C0E2FFDFCFE7FFA3881200DB
:021A940001014E
:020000040020DA
:08000000FFFFFFFFFFFFFFFF00
:020000040030CA
:0E000000FF331F3CFFB905FF0FC00FE00F409C
:00000001FF
